:100000000C945D000C9485000C9485000C94850084
:100010000C9485000C9485000C9485000C9485004C
:100020000C9485000C9485000C9485000C9485003C
:100030000C9485000C9485000C9485000C9485002C
:100040000C94CD020C9485000C949B020C947502C8
:100050000C9485000C9485000C9485000C9485000C
:100060000C9485000C94850000000008000201003B
:100070000003040700000000000000000000000072
:10008000250028002B0000000000240027002A0083
:10009000040404040404040402020202020203032E
:1000A0000303030301020408102040800102040836
:1000B0001020010204081020BC0411241FBECFEF41
:1000C000D8E0DEBFCDBF11E0A0E0B1E0EEE9FEE098
:1000D00002C005900D92A432B107D9F721E0A4E245
:1000E000B1E001C01D92AA3CB207E1F710E0CDE5F6
:1000F000D0E004C02197FE010E944707CC35D1070C
:10010000C9F70E9417030C944D070C94000090E06F
:10011000FC01EC55FF4F249180579F4FFC018491C7
:10012000882399F090E0880F991FFC01EA57FF4F50
:10013000A591B491FC01E458FF4F859194918FB73C
:10014000F894EC91E22BEC938FBF0895AF92BF929D
:10015000CF92DF92EF92FF920F931F93CF93DF9393
:100160006C017B018B01040F151FEB015E01AE18C2
:10017000BF08C017D10759F06991D601ED91FC91E4
:100180000190F081E02DC6010995892B79F7C50111
:10019000DF91CF911F910F91FF90EF90DF90CF9063
:1001A000BF90AF900895FC01538D448D252F30E012
:1001B000842F90E0821B930B541710F0CF96089574
:1001C00001970895FC01918D828D981761F0A28DA1
:1001D000AE0FBF2FB11D5D968C91928D9F5F9F7367
:1001E000928F90E008958FEF9FEF0895FC01918D1D
:1001F000828D981731F0828DE80FF11D858D90E08A
:1002000008958FEF9FEF0895FC01918D228D892F26
:1002100090E0805C9F4F821B91098F73992708950E
:100220008DE291E00E94040121E0892B09F420E095
:10023000822F089580E090E0892B29F00E94100120
:1002400081110C9400000895FC01A48DA80FB92F12
:10025000B11DA35ABF4F2C91848D90E001968F73EE
:100260009927848FA689B7892C93A089B1898C910D
:10027000837080648C93938D848D981306C002885C
:10028000F389E02D80818F7D80830895EF92FF9226
:100290000F931F93CF93DF93EC0181E0888F9B8DA9
:1002A0008C8D98131AC0E889F989808185FF15C063
:1002B0009FB7F894EE89FF896083E889F989808186
:1002C0008370806480839FBF81E090E0DF91CF9155
:1002D0001F910F91FF90EF900895F62E0B8D10E077
:1002E0000F5F1F4F0F731127E02E8C8D8E110CC0E6
:1002F0000FB607FCFACFE889F989808185FFF5CF31
:10030000CE010E942401F1CFEB8DEC0FFD2FF11DEA
:10031000E35AFF4FF0829FB7F8940B8FEA89FB896D
:1003200080818062CFCFCF93DF93EC01888D8823CB
:10033000B9F0AA89BB89E889F9898C9185FD03C048
:10034000808186FD0DC00FB607FCF7CF8C9185FF2D
:10035000F2CF808185FFEDCFCE010E942401E9CF4D
:10036000DF91CF91089590E0FC01E859FF4F24916F
:10037000FC01EC55FF4F3491FC01E057FF4FE49135
:10038000EE23C9F0222339F0233001F1A8F4213003
:1003900019F1223029F1F0E0EE0FFF1FE458FF4F72
:1003A000A591B4918FB7F894EC91611126C0309566
:1003B0003E233C938FBF08952730A9F02830C9F021
:1003C000243049F7809180008F7D03C080918000A8
:1003D0008F7780938000DFCF84B58F7784BDDBCFAC
:1003E00084B58F7DFBCF8091B0008F778093B00074
:1003F000D2CF8091B0008F7DF9CF3E2BDACF3FB7BF
:10040000F8948091290190912A01A0912B01B0913B
:100410002C0126B5A89B05C02F3F19F00196A11D00
:10042000B11D3FBFBA2FA92F982F8827BC01CD013E
:10043000620F711D811D911D42E0660F771F881F9D
:10044000991F4A95D1F70895FC0101900020E9F722
:100450003197AF01481B590BBC018DE291E00C9420
:10046000A6008F929F92AF92BF920F931F93CF934C
:10047000DF93CDB7DEB7A1970FB6F894DEBF0FBEFE
:10048000CDBF19A2423008F44AE08E010F5D1F4F24
:10049000842E912CB12CA12CA50194010E9425073A
:1004A000E62FB901CA01EA30F4F4E05DD801EE9319
:1004B0008D01232B242B252B79F790E080E01097DA
:1004C00019F0CD010E942402A1960FB6F894DEBF68
:1004D0000FBECDBFDF91CF911F910F91BF90AF9015
:1004E0009F908F900895E95CE1CF1F920F920FB615
:1004F0000F9211242F933F934F935F936F937F93AA
:100500008F939F93AF93BF93EF93FF938DE291E00F
:100510000E942401FF91EF91BF91AF919F918F9124
:100520007F916F915F914F913F912F910F900FBEEF
:100530000F901F9018951F920F920FB60F921124D3
:100540002F938F939F93EF93FF93E0913D01F09151
:100550003E018081E0914301F091440182FD1BC086
:100560009081809146018F5F8F73209147018217A0
:1005700041F0E0914601F0E0E35DFE4F958F8093FE
:100580004601FF91EF919F918F912F910F900FBE98
:100590000F901F9018958081F4CF1F920F920FB685
:1005A0000F9211242F933F938F939F93AF93BF93F9
:1005B0008091250190912601A0912701B0912801F9
:1005C0003091240123E0230F2D3758F50196A11D0A
:1005D000B11D209324018093250190932601A093BF
:1005E0002701B09328018091290190912A01A091BF
:1005F0002B01B0912C010196A11DB11D8093290101
:1006000090932A01A0932B01B0932C01BF91AF913D
:100610009F918F913F912F910F900FBE0F901F9040
:10062000189526E8230F0296A11DB11DD2CF78940C
:1006300084B5826084BD84B5816084BD85B58260E7
:1006400085BD85B5816085BD80916E008160809398
:100650006E00109281008091810082608093810001
:100660008091810081608093810080918000816011
:10067000809380008091B10084608093B10080916C
:10068000B00081608093B00080917A008460809394
:100690007A0080917A00826080937A0080917A005B
:1006A000816080937A0080917A00806880937A00DC
:1006B0001092C1008CE00E9487008BE00E948700AE
:1006C000E0913D01F0913E0182E08083E0913901AB
:1006D000F0913A011082E0913B01F0913C018FECE6
:1006E000808310924501E0914101F091420186E042
:1006F0008083E0913F01F09140018081806180839F
:10070000E0913F01F0914001808188608083E09119
:100710003F01F0914001808180688083E0913F013A
:10072000F091400180818F7D808311E4C0E0D0E0B2
:1007300010937C0080917A00806480937A0080918D
:100740007A0086FDFCCF8091780060917900762F49
:10075000682F072E000C880B990B0E94FE0520E0E5
:1007600030E040E85AE30E94B30620E030E04AEF70
:1007700053E40E94B30620E030E048EC52E40E94CB
:100780005B056B017C01AC019B010E942007882363
:1007900009F44EC082E191E00E9424028EE191E0D2
:1007A0000E94240281E291E00E94240220E030E0D5
:1007B00040EF51E4C701B6010E94560518160CF42B
:1007C000C9C061E08CE00E94B30160E08BE00E9450
:1007D000B3010E94FF016B017C018AE0882E912CFD
:1007E000A12CB12C0E94FF016C197D098E099F0973
:1007F000683E734081059105A8F321E0821A9108B3
:10080000A108B10888EEC80E83E0D81EE11CF11CD7
:1008100081149104A104B10429F7209709F488CF29
:100820000E941001882309F483CF0E94000080CF2A
:1008300046015701E894B7F82FEF3FEF4FE75FE726
:10084000C501B4010E94200781110DC02FEF3FEFB9
:100850004FE75FE7C501B4010E94560518161CF466
:1008600086E191E099CF2FEF3FEF4FE75FE4C701BB
:10087000B6010E94AE0618161CF48AE191E08CCFF6
:100880002FEF3FEF4FE75FECC701B6010E9456051F
:1008900087FDF3CF20E030E0A901C701B6010E9437
:1008A000560587FF54C06DE28DE291E00E9446013B
:1008B000C701B60190582AE037ED43EA5BE30E9496
:1008C000EA042B013C010E94CD054B015C010E9412
:1008D000FC059B01AC01C301B2010E94E9042B019C
:1008E0003C014AE0C501B4010E9431026EE28DE292
:1008F00091E00E94460120E030E040E251E4C30173
:10090000B2010E94B3062B013C010E94CD054B01B0
:10091000B12CA12C4AE0C501B4010E943102C501ED
:10092000B4010E94FC059B01AC01C301B2010E940D
:10093000E90420E030E040E251E40E94B3060E9466
:10094000CD0590E080E04AE00E94310227CFC70148
:10095000B601B1CF20E030E040EF51E4C701B6016D
:100960000E94AE0618160CF034CF61E08BE00E94B6
:10097000B30160E08CE02BCFEDE2F1E01382128254
:1009800088EE93E0A0E0B0E084839583A683B783EC
:1009900084E091E09183808385EC90E09587848763
:1009A00084EC90E09787868780EC90E0918B808B39
:1009B00081EC90E0938B828B82EC90E0958B848B22
:1009C00086EC90E0978B868B118E128E138E148E90
:1009D00008955058BB27AA270E9401050C9474065D
:1009E0000E94660638F00E946D0620F039F49F3FA1
:1009F00019F426F40C9463060EF4E095E7FB0C94CE
:100A00005D06E92F0E94850658F3BA17620773073F
:100A10008407950720F079F4A6F50C94A7060EF448
:100A2000E0950B2EBA2FA02D0B01B90190010C01FE
:100A3000CA01A0011124FF27591B99F0593F50F416
:100A4000503E68F11A16F040A22F232F342F44276E
:100A5000585FF3CF469537952795A795F040539566
:100A6000C9F77EF41F16BA0B620B730B840BBAF036
:100A70009150A1F0FF0FBB1F661F771F881FC2F7A1
:100A80000EC0BA0F621F731F841F48F487957795B5
:100A90006795B795F7959E3F08F0B0CF9395880F6F
:100AA00008F09927EE0F9795879508950E943906CB
:100AB00008F481E008950E946F050C9474060E946A
:100AC0006D0658F00E94660640F029F45F3F29F059
:100AD0000C945D0651110C94A8060C9463060E94B8
:100AE000850668F39923B1F3552391F3951B550BB4
:100AF000BB27AA2762177307840738F09F5F5F4FF1
:100B0000220F331F441FAA1FA9F335D00E2E3AF02F
:100B1000E0E832D091505040E695001CCAF72BD047
:100B2000FE2F29D0660F771F881FBB1F2617370798
:100B30004807AB07B0E809F0BB0B802DBF01FF27CA
:100B400093585F4F3AF09E3F510578F00C945D0644
:100B50000C94A8065F3FE4F3983ED4F3869577950E
:100B60006795B795F7959F5FC9F7880F911D969583
:100B7000879597F90895E1E0660F771F881FBB1FDF
:100B8000621773078407BA0720F0621B730B840B8C
:100B9000BA0BEE1F88F7E09508950E948D0688F045
:100BA0009F5798F0B92F9927B751B0F0E1F0660F31
:100BB000771F881F991F1AF0BA95C9F714C0B13072
:100BC00091F00E94A706B1E008950C94A706672F44
:100BD000782F8827B85F39F0B93FCCF386957795A1
:100BE0006795B395D9F73EF490958095709561958A
:100BF0007F4F8F4F9F4F0895E89409C097FB3EF4B5
:100C000090958095709561957F4F8F4F9F4F992359
:100C1000A9F0F92F96E9BB279395F69587957795D7
:100C20006795B795F111F8CFFAF4BB0F11F460FF97
:100C30001BC06F5F7F4F8F4F9F4F16C0882311F0EF
:100C400096E911C0772321F09EE8872F762F05C003
:100C5000662371F096E8862F70E060E02AF09A959E
:100C6000660F771F881FDAF7880F9695879597F993
:100C70000895990F0008550FAA0BE0E8FEEF16162D
:100C80001706E807F907C0F012161306E407F50780
:100C900098F0621B730B840B950B39F40A2661F0F4
:100CA000232B242B252B21F408950A2609F4A14097
:100CB000A6958FEF811D811D089597F99F6780E8A4
:100CC00070E060E008959FEF80EC089500240A949E
:100CD0001616170618060906089500240A94121617
:100CE0001306140605060895092E0394000C11F44A
:100CF000882352F0BB0F40F4BF2B11F460FF04C0F7
:100D00006F5F7F4F8F4F9F4F089557FD9058440F4F
:100D1000551F59F05F3F71F04795880F97FB991F5A
:100D200061F09F3F79F08795089512161306140617
:100D3000551FF2CF4695F1DF08C0161617061806A4
:100D4000991FF1CF86957105610508940895E8947F
:100D5000BB2766277727CB0197F908950E943906AC
:100D600008F48FEF08950E94C6060C9474060E9442
:100D7000660638F00E946D0620F0952311F00C9461
:100D80005D060C94630611240C94A8060E94850647
:100D900070F3959FC1F3950F50E0551F629FF001CE
:100DA000729FBB27F00DB11D639FAA27F00DB11DE7
:100DB000AA1F649F6627B00DA11D661F829F222770
:100DC000B00DA11D621F739FB00DA11D621F839FF7
:100DD000A00D611D221F749F3327A00D611D231FCD
:100DE000849F600D211D822F762F6A2F11249F571B
:100DF00050409AF0F1F088234AF0EE0FFF1FBB1F1E
:100E0000661F771F881F91505040A9F79E3F5105DC
:100E100080F00C945D060C94A8065F3FE4F3983EC6
:100E2000D4F3869577956795B795F795E7959F5F86
:100E3000C1F7FE2B880F911D9695879597F9089518
:100E40000E943906880B990B0895A1E21A2EAA1B5D
:100E5000BB1BFD010DC0AA1FBB1FEE1FFF1FA2176A
:100E6000B307E407F50720F0A21BB30BE40BF50B67
:100E7000661F771F881F991F1A9469F760957095F0
:100E8000809590959B01AC01BD01CF010895EE0FB7
:0E0E9000FF1F0590F491E02D0994F894FFCF18
:100E9E00000000004601A600D30093010401E20009
:100EAE00F6006E616E00696E66006F7666002A430C
:040EBE00000D0A0019
:107E0000112484B714BE81FFF0D085E080938100F7
:107E100082E08093C00088E18093C10086E0809377
:107E2000C20080E18093C4008EE0C9D0259A86E02C
:107E300020E33CEF91E0309385002093840096BBD3
:107E4000B09BFECF1D9AA8958150A9F7CC24DD24C4
:107E500088248394B5E0AB2EA1E19A2EF3E0BF2EE7
:107E6000A2D0813461F49FD0082FAFD0023811F036
:107E7000013811F484E001C083E08DD089C08234E0
:107E800011F484E103C0853419F485E0A6D080C0E4
:107E9000853579F488D0E82EFF2485D0082F10E0AE
:107EA000102F00270E291F29000F111F8ED06801E7
:107EB0006FC0863521F484E090D080E0DECF843638
:107EC00009F040C070D06FD0082F6DD080E0C81688
:107ED00080E7D80618F4F601B7BEE895C0E0D1E017
:107EE00062D089930C17E1F7F0E0CF16F0E7DF06D8
:107EF00018F0F601B7BEE89568D007B600FCFDCFD4
:107F0000A601A0E0B1E02C9130E011968C91119780
:107F100090E0982F8827822B932B1296FA010C0160
:107F200087BEE89511244E5F5F4FF1E0A038BF0790
:107F300051F7F601A7BEE89507B600FCFDCF97BE46
:107F4000E89526C08437B1F42ED02DD0F82E2BD052
:107F50003CD0F601EF2C8F010F5F1F4F84911BD097
:107F6000EA94F801C1F70894C11CD11CFA94CF0C13
:107F7000D11C0EC0853739F428D08EE10CD085E9AC
:107F80000AD08FE07ACF813511F488E018D01DD067
:107F900080E101D065CF982F8091C00085FFFCCF94
:107FA0009093C60008958091C00087FFFCCF809118
:107FB000C00084FD01C0A8958091C6000895E0E648
:107FC000F0E098E1908380830895EDDF803219F02E
:107FD00088E0F5DFFFCF84E1DECF1F93182FE3DFCA
:107FE0001150E9F7F2DF1F91089580E0E8DFEE27F6
:047FF000FF270994CA
:027FFE00040479
:0400000300007E007B
:00000001FF
