:100000000C9462000C948A000C948A000C948A0070
:100010000C948A000C948A000C948A000C948A0038
:100020000C948A000C948A000C948A000C948A0028
:100030000C948A000C948A000C948A000C948A0018
:100040000C945D040C948A000C942B040C9405040D
:100050000C948A000C948A000C948A000C948A00F8
:100060000C948A000C948A000000000024002700F1
:100070002A0000000000250028002B0000000008D6
:10008000000201000003040700000000000000005F
:1000900000000000230026002900040404040404D6
:1000A0000404020202020202030303030303010227
:1000B00004081020408001020408102001020408F6
:1000C0001020A70411241FBECFEFD8E0DEBFCDBFA4
:1000D00011E0A0E0B1E0EAEEF0E102C005900D927F
:1000E000A232B107D9F721E0A2E2B1E001C01D922E
:1000F000AB3DB207E1F710E0C2E6D0E004C02197C3
:10010000FE010E946D08C136D107C9F70E94F404B0
:100110000C9473080C940000CF92DF92EF92FF9240
:10012000CF93DF93B091CF01A0E08111AB2F8091ED
:10013000D00190E0880F991FAC0140575F4FC090ED
:10014000D501D090D601E090D701F090D80130E0F1
:1001500020E0FA01C591D491E881B90190E080E0F6
:10016000EB23EA130AC02F5F3F4F6C157D058E0508
:100170009F0578F36FEF7FEFCB01DF91CF91FF9079
:10018000EF90DF90CF900895AF92BF92CF92DF9221
:10019000EF92FF920F931F93CF93DF936C017B013C
:1001A0008B01040F151FEB015E01AE18BF08C017CD
:1001B000D10759F06991D601ED91FC910190F08140
:1001C000E02DC6010995892B79F7C501DF91CF9103
:1001D0001F910F91FF90EF90DF90CF90BF90AF9065
:1001E0000895FC01538D448D252F30E0842F90E03D
:1001F000821B930B541710F0CF9608950197089522
:10020000FC01918D828D981761F0A28DAE0FBF2FEA
:10021000B11D5D968C91928D9F5F9F73928F90E040
:1002200008958FEF9FEF0895FC01918D828D9817AF
:1002300031F0828DE80FF11D858D90E008958FEFEC
:100240009FEF0895FC01918D228D892F90E0805CB5
:100250009F4F821B91098F73992708958BE291E03C
:100260000E94220121E0892B09F420E0822F0895C9
:1002700080E090E0892B29F00E942E0181110C94DE
:1002800000000895FC01A48DA80FB92FB11DA35A39
:10029000BF4F2C91848D90E001968F739927848FA6
:1002A000A689B7892C93A089B1898C9183708064C9
:1002B0008C93938D848D981306C00288F389E02D6A
:1002C00080818F7D80830895EF92FF920F931F931B
:1002D000CF93DF93EC0181E0888F9B8D8C8D9813F9
:1002E0001AC0E889F989808185FF15C09FB7F89405
:1002F000EE89FF896083E889F98980818370806451
:1003000080839FBF81E090E0DF91CF911F910F919B
:10031000FF90EF900895F62E0B8D10E00F5F1F4FAA
:100320000F731127E02E8C8D8E110CC00FB607FCB9
:10033000FACFE889F989808185FFF5CFCE010E9447
:100340004201F1CFEB8DEC0FFD2FF11DE35AFF4F72
:10035000F0829FB7F8940B8FEA89FB8980818062D5
:10036000CFCFCF93DF93EC01888D8823B9F0AA8992
:10037000BB89E889F9898C9185FD03C0808186FD60
:100380000DC00FB607FCF7CF8C9185FFF2CF8081AF
:1003900085FFEDCFCE010E944201E9CFDF91CF91E1
:1003A000089590E0FC01E458FF4F2491FC01E255D0
:1003B000FF4F3491FC01E656FF4FE491EE23C9F064
:1003C000222339F0233001F1A8F4213019F1223031
:1003D00029F1F0E0EE0FFF1FEE58FF4FA591B49109
:1003E0008FB7F894EC91611126C030953E233C9371
:1003F0008FBF08952730A9F02830C9F0243049F77D
:10040000809180008F7D03C0809180008F778093E2
:100410008000DFCF84B58F7784BDDBCF84B58F7D3F
:10042000FBCF8091B0008F778093B000D2CF8091C6
:10043000B0008F7DF9CF3E2BDACFCF93DF9390E0E2
:10044000FC01E255FF4F249186569F4FFC01849199
:100450008823D1F090E0880F991FFC01E859FF4FE5
:10046000A591B491FC01EE58FF4FC591D491623033
:1004700071F49FB7F8943C91822F809583238C93DD
:10048000E8812E2B28839FBFDF91CF9108958FB7EE
:10049000F894EC912E2B2C938FBFF6CF3FB7F894A6
:1004A0008091230190912401A0912501B091260112
:1004B00026B5A89B05C02F3F19F00196A11DB11DBF
:1004C0003FBFBA2FA92F982F8827BC01CD01620FFB
:1004D000711D811D911D42E0660F771F881F991FB6
:1004E0004A95D1F708958F929F92AF92BF92CF9283
:1004F000DF92EF92FF924B015C010E944E026B0172
:100500007C010E944E026C197D098E099F09683E8C
:10051000734081059105A8F321E0821A9108A10892
:10052000B10888EEC80E83E0D81EE11CF11C8114CE
:100530009104A104B10429F7FF90EF90DF90CF90D0
:10054000BF90AF909F908F900895CF92DF92EF92DF
:10055000FF920F931F93CF93DF93CDB7DEB7C054B5
:10056000D1400FB6F894DEBF0FBECDBF2FB7F894C1
:100570008091270190912801A0912901B0912A0131
:100580002FBF4091D1015091D2016091D301709160
:10059000D4018C019D01041B150B260B370BB901EF
:1005A000A801403D57406105710590F48091D90143
:1005B000C05CDE4F0FB6F894DEBF0FBECDBFDF913B
:1005C000CF911F910F91FF90EF90DF90CF90089502
:1005D0008093D1019093D201A093D301B093D40121
:1005E0001092CC011092CB011092CA011092C90155
:1005F0001092C80162E08091CD010E941D0261E06D
:1006000070E080E090E00E94730261E08091CD0193
:100610000E941D0260E08091CD010E94D101809175
:10062000CE018551823020F58BE291E10197F1F7FF
:1006300062E08091CD010E941D028091DA0190E07C
:100640008230910538F0880F991F880F991F059700
:100650000197F1F7F89480E00E948C006F3F7F4F84
:100660008F4F9F4F61F41092D901789480E0A0CF12
:1006700064E170E080E090E00E947302D9CF81E0F5
:100680000E948C006F3F7F4F8F4F9F4F61F38E0111
:100690000F5F1F4F6E018FEBC81A8EEFD80A7801DB
:1006A00080E00E948C00F7016083718382839383D2
:1006B00081E00E948C00F7016483758386839783B1
:1006C000F8E0EF0EF11CEC14FD0451F7789430E0E3
:1006D00020E0F801C080D180E280F3804481558120
:1006E00066817781FFEFCF16DF06EF06FF0631F058
:1006F0004F3F8FEF58076807780719F41092D90118
:10070000B5CFF90183E0F595E7958A95E1F7E853D0
:10071000FE4F8081880FC416D506E606F70610F155
:1007200080832F5F3F4F085F1F4F2832310589F6C6
:100730004091CC012091C8018091C901280F332735
:10074000331F8091CA01280F311D8091CB01820F88
:10075000932F911D99274817190681F681E0809300
:10076000D90126CF8160DCCFFC0101900020E9F7A0
:100770003197AF01481B590BBC018BE291E00C94FF
:10078000C4008F929F92AF92BF920F931F93CF930B
:10079000DF93CDB7DEB7A1970FB6F894DEBF0FBEDB
:1007A000CDBF19A2423008F44AE08E010F5D1F4F01
:1007B000842E912CB12CA12CA50194010E944B08F0
:1007C000E62FB901CA01EA30F4F4E05DD801EE93F6
:1007D0008D01232B242B252B79F790E080E01097B7
:1007E00019F0CD010E94B403A1960FB6F894DEBFB4
:1007F0000FBECDBFDF91CF911F910F91BF90AF90F2
:100800009F908F900895E95CE1CF1F920F920FB6F1
:100810000F9211242F933F934F935F936F937F9386
:100820008F939F93AF93BF93EF93FF938BE291E0EE
:100830000E944201FF91EF91BF91AF919F918F91E3
:100840007F916F915F914F913F912F910F900FBECC
:100850000F901F9018951F920F920FB60F921124B0
:100860002F938F939F93EF93FF93E0913B01F09130
:100870003C018081E0914101F091420182FD1BC069
:100880009081809144018F5F8F7320914501821781
:1008900041F0E0914401F0E0E55DFE4F958F8093DB
:1008A0004401FF91EF919F918F912F910F900FBE77
:1008B0000F901F9018958081F4CF1F920F920FB662
:1008C0000F9211242F933F938F939F93AF93BF93D6
:1008D0008091270190912801A0912901B0912A01CE
:1008E0003091220123E0230F2D3758F50196A11DE9
:1008F000B11D209322018093270190932801A0939A
:100900002901B0932A018091230190912401A091A3
:100910002501B09126010196A11DB11D80932301EF
:1009200090932401A0932501B0932601BF91AF912C
:100930009F918F913F912F910F900FBE0F901F901D
:10094000189526E8230F0296A11DB11DD2CFEBE228
:10095000F1E01382128288EE93E0A0E0B0E084839D
:100960009583A683B78384E091E09183808385ECAF
:1009700090E09587848784EC90E09787868780EC69
:1009800090E0918B808B81EC90E0938B828B82EC5A
:1009900090E0958B848B86EC90E0978B868B118E04
:1009A000128E138E148EA8ECB1E088E015968C930D
:1009B000159786E116968C931697E6EBF0E0E49196
:1009C0001796EC931797E2EAF0E0E4911896EC930F
:1009D000189740E85EE360E070E01D964D935D93EC
:1009E0006D937C9350970895789484B5826084BD0C
:1009F00084B5816084BD85B5826085BD85B5816023
:100A000085BD80916E00816080936E0010928100A0
:100A1000809181008260809381008091810081605B
:100A2000809381008091800081608093800080911C
:100A3000B10084608093B1008091B00081608093A8
:100A4000B00080917A00846080937A0080917A006F
:100A5000826080937A0080917A00816080937A002E
:100A600080917A00806880937A001092C100E091B2
:100A70003B01F0913C0182E08083E0913701F091ED
:100A800038011082E0913901F0913A018FEC8083B6
:100A900010924301E0913F01F091400186E0808394
:100AA000E0913D01F0913E01808180618083E09181
:100AB0003D01F0913E01808188608083E0913D019D
:100AC000F0913E01808180688083E0913D01F0914A
:100AD0003E0180818F7D808361E087E00E941D025E
:100AE000C0E0D0E00E94A502882309F471C0809183
:100AF000CE018B3030F08D3058F08551823008F4C3
:100B000055C0C12CD12C90ECE92E9FE7F92E1EC0C8
:100B10006091C90170E090E080E00E9424072DEC14
:100B20003CEC4CEC5DE30E94D9076B017C016091C9
:100B3000C80170E090E080E00E9424079B01AC01B6
:100B4000C701B6010E9482066B017C01A7019601D4
:100B5000C701B6010E944608882309F440C082E11B
:100B600091E00E94B4038EE191E00E94B40320E082
:100B700030E046E952E4C701B6010E94D40761E0C3
:100B800087FD60E087E00E94D10164EF71E080E0C2
:100B900090E00E947302209709F4A4CF0E942E01D6
:100BA000882309F49FCF0E9400009CCF6091C80168
:100BB0007091C90176276727762790E080E00E9430
:100BC00022072DEC3CEC4CEC5DE30E94D907BCCF36
:100BD000C12CD12C80ECE82E8FE7F82EC0CF460137
:100BE0005701E894B7F82FEF3FEF4FE75FE7C501F4
:100BF000B4010E94460881110DC02FEF3FEF4FE76F
:100C00005FE7C501B4010E94EE0618161CF486E1E8
:100C100091E0A7CF2FEF3FEF4FE75FE4C701B601A9
:100C20000E94D40718161CF48AE191E09ACF2FEFA6
:100C30003FEF4FE75FECC701B6010E94EE0687FD6C
:100C4000F3CF20E030E0A901C701B6010E94EE0613
:100C500087FF54C06DE28BE291E00E946401C701FE
:100C6000B60190582AE037ED43EA5BE30E94820622
:100C70002B013C010E94F3064B015C010E942207FC
:100C80009B01AC01C301B2010E9481062B013C0112
:100C90004AE0C501B4010E94C1036EE28BE291E01B
:100CA0000E94640120E030E040E251E4C301B2015F
:100CB0000E94D9072B013C010E94F3064B01B12C85
:100CC000A12C4AE0C501B4010E94C103C501B401D1
:100CD0000E9422079B01AC01C301B2010E94810660
:100CE00020E030E040E251E40E94D9070E94F30680
:100CF00090E080E04AE00E94C10335CFC701B60111
:100D0000B1CF5058BB27AA270E9499060C949A0786
:100D10000E948C0738F00E94930720F039F49F3F1F
:100D200019F426F40C9489070EF4E095E7FB0C9473
:100D30008307E92F0E94AB0758F3BA1762077307BE
:100D40008407950720F079F4A6F50C94CD070EF4EE
:100D5000E0950B2EBA2FA02D0B01B90190010C01CB
:100D6000CA01A0011124FF27591B99F0593F50F4E3
:100D7000503E68F11A16F040A22F232F342F44273B
:100D8000585FF3CF469537952795A795F040539533
:100D9000C9F77EF41F16BA0B620B730B840BBAF003
:100DA0009150A1F0FF0FBB1F661F771F881FC2F76E
:100DB0000EC0BA0F621F731F841F48F48795779582
:100DC0006795B795F7959E3F08F0B0CF9395880F3C
:100DD00008F09927EE0F9795879508950E945F0771
:100DE00008F481E008950E94B30788F09F5798F0B7
:100DF000B92F9927B751B0F0E1F0660F771F881F20
:100E0000991F1AF0BA95C9F714C0B13091F00E9439
:100E1000CD07B1E008950C94CD07672F782F882770
:100E2000B85F39F0B93FCCF3869577956795B39560
:100E3000D9F73EF490958095709561957F4F8F4FCF
:100E40009F4F0895E89409C097FB3EF490958095D4
:100E5000709561957F4F8F4F9F4F9923A9F0F92F80
:100E600096E9BB279395F695879577956795B795FE
:100E7000F111F8CFFAF4BB0F11F460FF1BC06F5FE4
:100E80007F4F8F4F9F4F16C0882311F096E911C0F6
:100E9000772321F09EE8872F762F05C0662371F017
:100EA00096E8862F70E060E02AF09A95660F771F2B
:100EB000881FDAF7880F9695879597F90895990F07
:100EC0000008550FAA0BE0E8FEEF16161706E80714
:100ED000F907C0F012161306E407F50798F0621B35
:100EE000730B840B950B39F40A2661F0232B242B0A
:100EF000252B21F408950A2609F4A140A6958FEF29
:100F0000811D811D089597F99F6780E870E060E07A
:100F100008959FEF80EC089500240A941616170692
:100F200018060906089500240A94121613061406DA
:100F300005060895092E0394000C11F4882352F03D
:100F4000BB0F40F4BF2B11F460FF04C06F5F7F4FF5
:100F50008F4F9F4F089557FD9058440F551F59F0DC
:100F60005F3F71F04795880F97FB991F61F09F3F96
:100F700079F087950895121613061406551FF2CFBF
:100F80004695F1DF08C0161617061806991FF1CF0F
:100F900086957105610508940895E894BB27662736
:100FA0007727CB0197F908950E945F0708F48FEF28
:100FB00008950E94EC070C949A070E948C0738F061
:100FC0000E94930720F0952311F00C9483070C9452
:100FD000890711240C94CE070E94AB0770F3959FEC
:100FE000C1F3950F50E0551F629FF001729FBB2720
:100FF000F00DB11D639FAA27F00DB11DAA1F649FBC
:101000006627B00DA11D661F829F2227B00DA11D6E
:10101000621F739FB00DA11D621F839FA00D611DF4
:10102000221F749F3327A00D611D231F849F600D15
:10103000211D822F762F6A2F11249F5750409AF03E
:10104000F1F088234AF0EE0FFF1FBB1F661F771FCA
:10105000881F91505040A9F79E3F510580F00C9495
:1010600083070C94CE075F3FE4F3983ED4F3869554
:1010700077956795B795F795E7959F5FC1F7FE2B35
:10108000880F911D9695879597F908950E945F079F
:10109000880B990B0895A1E21A2EAA1BBB1BFD0118
:1010A0000DC0AA1FBB1FEE1FFF1FA217B307E40747
:1010B000F50720F0A21BB30BE40BF50B661F771F9F
:1010C000881F991F1A9469F760957095809590957F
:1010D0009B01AC01BD01CF010895EE0FFF1F0590EC
:0A10E000F491E02D0994F894FFCF7D
:1010EA00000000006401C400F100B1012201000106
:1010FA0014016E616E00696E66006F7666000D0AF5
:02110A000000E3
:00000001FF
