:100000000C945D000C9485000C9485000C94850084
:100010000C9485000C9485000C9485000C9485004C
:100020000C9485000C9485000C9485000C9485003C
:100030000C9485000C9485000C9485000C9485002C
:100040000C9415030C9485000C94E3020C94BD02EF
:100050000C9485000C9485000C9485000C9485000C
:100060000C9485000C9485000000000024002700FB
:100070002A0000000000250028002B0004040404CE
:100080000404040402020202020203030303030342
:10009000010204081020408001020408102001021F
:1000A00004081020000000080002010000030407FB
:1000B0000000000000000000BD0411241FBECFEFAF
:1000C000D8E0DEBFCDBF11E0A0E0B1E0E0ECFDE0A4
:1000D00002C005900D92A833B107D9F721E0A8E33B
:1000E000B1E001C01D92A63EB207E1F710E0CDE5F8
:1000F000D0E004C02197FE010E94D806CC35D1077C
:10010000C9F70E945F030C94DE060C940000AF92C6
:10011000BF92CF92DF92EF92FF920F931F93CF93F4
:10012000DF936C017B018B01040F151FEB015E0156
:10013000AE18BF08C017D10759F06991D601ED91EB
:10014000FC910190F081E02DC6010995892B79F78A
:10015000C501DF91CF911F910F91FF90EF90DF903C
:10016000CF90BF90AF900895FC01538D448D252F03
:1001700030E0842F90E0821B930B541710F0CF9641
:10018000089501970895FC01918D828D981761F073
:10019000A28DAE0FBF2FB11D5D968C91928D9F5F8A
:1001A0009F73928F90E008958FEF9FEF0895FC0169
:1001B000918D828D981731F0828DE80FF11D858D1C
:1001C00090E008958FEF9FEF0895FC01918D228DAF
:1001D000892F90E0805C9F4F821B91098F73992734
:1001E000089589E491E00E94E50021E0892B09F45B
:1001F00020E0822F089580E090E0892B29F00E9472
:10020000F10081110C9400000895FC01A48DA80F49
:10021000B92FB11DA35ABF4F2C91848D90E0019648
:100220008F739927848FA689B7892C93A089B18968
:100230008C91837080648C93938D848D981306C009
:100240000288F389E02D80818F7D80830895EF926D
:10025000FF920F931F93CF93DF93EC0181E0888F80
:100260009B8D8C8D98131AC0E889F989808185FF50
:1002700015C09FB7F894EE89FF896083E889F989F2
:1002800080818370806480839FBF81E090E0DF91F4
:10029000CF911F910F91FF90EF900895F62E0B8D47
:1002A00010E00F5F1F4F0F731127E02E8C8D8E1102
:1002B0000CC00FB607FCFACFE889F989808185FF69
:1002C000F5CFCE010E940501F1CFEB8DEC0FFD2F94
:1002D000F11DE35AFF4FF0829FB7F8940B8FEA8924
:1002E000FB8980818062CFCFCF93DF93EC01888D33
:1002F0008823B9F0AA89BB89E889F9898C9185FDA1
:1003000003C0808186FD0DC00FB607FCF7CF8C912E
:1003100085FFF2CF808185FFEDCFCE010E940501E0
:10032000E9CFDF91CF91089590E0FC01EC55FF4FAC
:100330002491FC01E057FF4F3491FC01E458FF4F3A
:10034000E491EE23C9F0222339F0233001F1A8F41F
:10035000213019F1223029F1F0E0EE0FFF1FEE58A5
:10036000FF4FA591B4918FB7F894EC91611126C01D
:1003700030953E233C938FBF08952730A9F0283055
:10038000C9F0243049F7809180008F7D03C08091AF
:1003900080008F7780938000DFCF84B58F7784BD16
:1003A000DBCF84B58F7DFBCF8091B0008F778093BA
:1003B000B000D2CF8091B0008F7DF9CF3E2BDACF45
:1003C000CF93DF9390E0FC01E057FF4F24918458D6
:1003D0009F4FFC0184918823D1F090E0880F991FF2
:1003E000FC01E859FF4FA591B491FC01EE58FF4F75
:1003F000C591D49161110EC09FB7F8948C91E22FF2
:10040000E0958E238C932881E223E8839FBFDF91C0
:10041000CF9108958FB7F894EC91E22BEC938FBFB6
:10042000F6CF8E3008F08E508770806480937C0009
:1004300080917A00806480937A0080917A0086FDB2
:10044000FCCF809178009091790008953FB7F8949F
:100450008091390190913A01A0913B01B0913C010A
:1004600026B5A89B05C02F3F19F00196A11DB11D0F
:100470003FBFBA2FA92F982F8827BC01CD01620F4B
:10048000711D811D911D42E0660F771F881F991F06
:100490004A95D1F70895FC0101900020E9F73197C2
:1004A000AF01481B590BBC0189E491E00C94870013
:1004B0008F929F92AF92BF920F931F93CF93DF9330
:1004C000CDB7DEB7A1970FB6F894DEBF0FBECDBF94
:1004D00019A2423008F44AE08E010F5D1F4F842EAE
:1004E000912CB12CA12CA50194010E94B606E62FF7
:1004F000B901CA01EA30F4F4E05DD801EE938D0150
:10050000232B242B252B79F790E080E0109719F00E
:10051000CD010E944B02A1960FB6F894DEBF0FBE2C
:10052000CDBFDF91CF911F910F91BF90AF909F9062
:100530008F900895E95CE1CFCF92DF92EF92FF9226
:10054000CF93DF936B017C016DE289E491E00E941F
:100550002701EC0166277727CB016C197D098E09ED
:100560009F094AE00E9458028C0F9D1FDF91CF9196
:10057000FF90EF90DF90CF9008951F920F920FB6EB
:100580000F9211242F933F934F935F936F937F9319
:100590008F939F93AF93BF93EF93FF9389E491E081
:1005A0000E940501FF91EF91BF91AF919F918F91B3
:1005B0007F916F915F914F913F912F910F900FBE5F
:1005C0000F901F9018951F920F920FB60F92112443
:1005D0002F938F939F93EF93FF93E0915901F091A5
:1005E0005A018081E0915F01F091600182FD1BC0A2
:1005F0009081809162018F5F8F73209163018217D8
:1006000041F0E0916201F0E0E75BFE4F958F80934F
:100610006201FF91EF919F918F912F910F900FBEEB
:100620000F901F9018958081F4CF1F920F920FB6F4
:100630000F9211242F933F938F939F93AF93BF9368
:1006400080913D0190913E01A0913F01B091400108
:100650003091380123E0230F2D3758F50196A11D65
:10066000B11D2093380180933D0190933E01A093EA
:100670003F01B09340018091390190913A01A091DE
:100680003B01B0913C010196A11DB11D8093390140
:1006900090933A01A0933B01B0933C01BF91AF917D
:1006A0009F918F913F912F910F900FBE0F901F90B0
:1006B000189526E8230F0296A11DB11DD2CF78947C
:1006C00084B5826084BD84B5816084BD85B5826057
:1006D00085BD85B5816085BD80916E008160809308
:1006E0006E00109281008091810082608093810071
:1006F0008091810081608093810080918000816081
:10070000809380008091B10084608093B1008091DB
:10071000B00081608093B00080917A008460809303
:100720007A0080917A00826080937A0080917A00CA
:10073000816080937A0080917A00806880937A004B
:100740001092C10061E08DE00E94E00160E08DE068
:100750000E949401E0915901F0915A0182E0808356
:10076000E0915501F09156011082E0915701F0910E
:1007700058018FEC808310926101E0915D01F0914E
:100780005E0186E08083E0915B01F0915C018081F5
:1007900080618083E0915B01F0915C0180818860E1
:1007A0008083E0915B01F0915C01808180688083AF
:1007B000E0915B01F0915C0180818F7D8083C0E0DE
:1007C000D0E061E08DE00E9494012FB7F894809111
:1007D0003D0190913E01A0913F01B09140012FBF9A
:1007E0008093450190934601A0934701B09348013F
:1007F00080E00E94110288389240D4F38FB7F894B9
:10080000C0903D01D0903E01E0903F01F09040014A
:100810008FBF8091450190914601A0914701B09111
:100820004801C81AD90AEA0AFB0AC701B6010E94A0
:10083000920520E030E44CE156E40E94EA0420E016
:1008400030E04AE754E40E9425066093410170932A
:10085000420180934301909344014AE0C701B601ED
:100860000E94580282E191E00E944B02C090410137
:10087000D0904201E0904301F090440120E030E04C
:1008800040E85FE3C701B6010E9420061816ACF5E8
:10089000C701B6010E945C0597FF2BC00E949C0215
:1008A00089E191E00E944B0288E291E00E944B02B4
:1008B00060E08DE00E94940161E08BE00E94E00125
:1008C00060E08BE00E94940180E00E941102181603
:1008D0001906D4F360E08BE00E94E001209709F450
:1008E00070CF0E94F100882309F46BCF0E940000B2
:1008F00068CF4AE00E945802D3CF20E030E04AE7B8
:1009000054E4C701B6010E9425060E945C0597FFCA
:1009100030C00E949C028BE291E00E944B0288E270
:1009200091E00E944B020E9426024B015C0184EF81
:10093000C82EDD24D394E12CF12C0E9426026819E4
:1009400079098A099B09683E734081059105A8F3DE
:1009500081E0C81AD108E108F10828EE820E23E0F0
:10096000921EA11CB11CC114D104E104F10429F7A9
:100970009FCF4AE00E945802CECFE9E4F1E0138213
:10098000128288EE93E0A0E0B0E084839583A68392
:10099000B78384E091E09183808385EC90E0958734
:1009A000848784EC90E09787868780EC90E0918B39
:1009B000808B81EC90E0938B828B82EC90E0958B26
:1009C000848B86EC90E0978B868B118E128E138E23
:1009D000148E08950E94FE040C94E6050E94DF0523
:1009E00058F00E94D80540F029F45F3F29F00C949C
:1009F000CF0551110C941A060C94D5050E94F705E9
:100A000068F39923B1F3552391F3951B550BBB273D
:100A1000AA2762177307840738F09F5F5F4F220F82
:100A2000331F441FAA1FA9F335D00E2E3AF0E0E879
:100A300032D091505040E695001CCAF72BD0FE2FC3
:100A400029D0660F771F881FBB1F26173707480757
:100A5000AB07B0E809F0BB0B802DBF01FF2793580F
:100A60005F4F3AF09E3F510578F00C94CF050C94FF
:100A70001A065F3FE4F3983ED4F386957795679521
:100A8000B795F7959F5FC9F7880F911D9695879544
:100A900097F90895E1E0660F771F881FBB1F621763
:100AA00073078407BA0720F0621B730B840BBA0B21
:100AB000EE1F88F7E09508950E9463056894B111D0
:100AC0000C941A0608950E94FF0588F09F5798F02D
:100AD000B92F9927B751B0F0E1F0660F771F881F43
:100AE000991F1AF0BA95C9F714C0B13091F00E945D
:100AF0001906B1E008950C941906672F782F8827FE
:100B0000B85F39F0B93FCCF3869577956795B39583
:100B1000D9F73EF490958095709561957F4F8F4FF2
:100B20009F4F0895E89409C097FB3EF490958095F7
:100B3000709561957F4F8F4F9F4F9923A9F0F92FA3
:100B400096E9BB279395F695879577956795B79521
:100B5000F111F8CFFAF4BB0F11F460FF1BC06F5F07
:100B60007F4F8F4F9F4F16C0882311F096E911C019
:100B7000772321F09EE8872F762F05C0662371F03A
:100B800096E8862F70E060E02AF09A95660F771F4E
:100B9000881FDAF7880F9695879597F9089597F942
:100BA0009F6780E870E060E008959FEF80EC089513
:100BB00000240A941616170618060906089500243C
:100BC0000A9412161306140605060895092E0394B6
:100BD000000C11F4882352F0BB0F40F4BF2B11F42A
:100BE00060FF04C06F5F7F4F8F4F9F4F089557FD89
:100BF0009058440F551F59F05F3F71F04795880F8B
:100C000097FB991F61F09F3F79F087950895121621
:100C100013061406551FF2CF4695F1DF08C01616CD
:100C200017061806991FF1CF86957105610508947E
:100C30000895E894BB2766277727CB0197F9089595
:100C40000E94920608F48FEF08950E9438060C94D3
:100C5000E6050E94D80538F00E94DF0520F09523B4
:100C600011F00C94CF050C94D50511240C941A06A0
:100C70000E94F70570F3959FC1F3950F50E0551F43
:100C8000629FF001729FBB27F00DB11D639FAA27E1
:100C9000F00DB11DAA1F649F6627B00DA11D661F30
:100CA000829F2227B00DA11D621F739FB00DA11D51
:100CB000621F839FA00D611D221F749F3327A00D0B
:100CC000611D231F849F600D211D822F762F6A2FA7
:100CD00011249F5750409AF0F1F088234AF0EE0F0C
:100CE000FF1FBB1F661F771F881F91505040A9F739
:100CF0009E3F510580F00C94CF050C941A065F3F7F
:100D0000E4F3983ED4F3869577956795B795F79574
:100D1000E7959F5FC1F7FE2B880F911D96958795EC
:100D200097F90895990F0008550FAA0BE0E8FEEF18
:100D300016161706E807F907C0F012161306E4079F
:100D4000F50798F0621B730B840B950B39F40A2698
:100D500061F0232B242B252B21F408950A2609F476
:100D6000A140A6958FEF811D811D0895A1E21A2E45
:100D7000AA1BBB1BFD010DC0AA1FBB1FEE1FFF1F3F
:100D8000A217B307E407F50720F0A21BB30BE40B8F
:100D9000F50B661F771F881F991F1A9469F76095D6
:100DA0007095809590959B01AC01BD01CF01089590
:100DB000EE0FFF1F0590F491E02D0994F894FFCFFA
:100DC0000000000027018700B4007401E500C300A3
:100DD000D700206D532020200020206D6963726FA2
:100DE00046617261647320000D0A0020206E616EFE
:080DF0006F466172616473003B
:107E0000112484B714BE81FFF0D085E080938100F7
:107E100082E08093C00088E18093C10086E0809377
:107E2000C20080E18093C4008EE0C9D0259A86E02C
:107E300020E33CEF91E0309385002093840096BBD3
:107E4000B09BFECF1D9AA8958150A9F7CC24DD24C4
:107E500088248394B5E0AB2EA1E19A2EF3E0BF2EE7
:107E6000A2D0813461F49FD0082FAFD0023811F036
:107E7000013811F484E001C083E08DD089C08234E0
:107E800011F484E103C0853419F485E0A6D080C0E4
:107E9000853579F488D0E82EFF2485D0082F10E0AE
:107EA000102F00270E291F29000F111F8ED06801E7
:107EB0006FC0863521F484E090D080E0DECF843638
:107EC00009F040C070D06FD0082F6DD080E0C81688
:107ED00080E7D80618F4F601B7BEE895C0E0D1E017
:107EE00062D089930C17E1F7F0E0CF16F0E7DF06D8
:107EF00018F0F601B7BEE89568D007B600FCFDCFD4
:107F0000A601A0E0B1E02C9130E011968C91119780
:107F100090E0982F8827822B932B1296FA010C0160
:107F200087BEE89511244E5F5F4FF1E0A038BF0790
:107F300051F7F601A7BEE89507B600FCFDCF97BE46
:107F4000E89526C08437B1F42ED02DD0F82E2BD052
:107F50003CD0F601EF2C8F010F5F1F4F84911BD097
:107F6000EA94F801C1F70894C11CD11CFA94CF0C13
:107F7000D11C0EC0853739F428D08EE10CD085E9AC
:107F80000AD08FE07ACF813511F488E018D01DD067
:107F900080E101D065CF982F8091C00085FFFCCF94
:107FA0009093C60008958091C00087FFFCCF809118
:107FB000C00084FD01C0A8958091C6000895E0E648
:107FC000F0E098E1908380830895EDDF803219F02E
:107FD00088E0F5DFFFCF84E1DECF1F93182FE3DFCA
:107FE0001150E9F7F2DF1F91089580E0E8DFEE27F6
:047FF000FF270994CA
:027FFE00040479
:0400000300007E007B
:00000001FF
